:020000040000FA
:1000000078020010890100009101000093010000B6
:100010009501000097010000990100000000000018
:100020000000000000000000000000009B01000034
:100030009D010000000000009F010000A1010000E0
:10004000A3010000A3010000A3010000A301000020
:10005000A3010000A3010000A3010000A301000010
:10006000A3010000A3010000A3010000A301000000
:10007000A3010000A3010000A3010000A3010000F0
:10008000A3010000A3010000A3010000A3010000E0
:10009000A3010000A3010000A3010000A3010000D0
:1000A000A3010000A3010000A3010000A3010000C0
:1000B000A3010000A3010000A3010000A3010000B0
:1000C000A3010000A3010000A301000000F002F85A
:1000D00000F04AF80AA090E8000C82448344AAF198
:1000E0000107DA4501D100F03FF8AFF2090EBAE896
:1000F0000F0013F0010F18BFFB1A43F0010318475C
:10010000AC200000CC200000103A24BF78C878C191
:10011000FAD8520724BF30C830C144BF04680C600D
:10012000704700000023002400250026103A28BF55
:1001300078C1FBD8520728BF30C148BF0B60704759
:10014000662901F0C187782900F0E8830020704714
:100150001FB500F0CBF804000020002101F08CFC5A
:10016000E0601FBD10B510BD01F03CF81146FFF76F
:10017000EFFF00F0A4FA01F05AF803B4FFF7F2FF22
:1001800003BC01F09BF8000009488047094800477C
:10019000FEE7FEE7FEE7FEE7FEE7FEE7FEE7FEE737
:1001A000FEE7FEE704480549034A054B7047000097
:1001B000A9040000CD0000007800001078020010B3
:1001C0007800001053EA020C00F069802DE9F04B32
:1001D0004FF00006002B1FBFB3FA83F503FA05F4B6
:1001E00024FA05F65E4012BF1643B2FA82F502FA0F
:1001F00005F4C5F120051EBF22FA05FC44EA0C04F3
:10020000203556EA044C4FEA144418BF641C4FF0E2
:1002100000084FF00009904271EB030C39D300291C
:1002200019BFB1FA81F701FA07F6B0FA80F700FAC0
:1002300007F6C7F120071EBF20FA07FC46EA0C06A6
:100240002037B6FBF4FCA7EB0507103F07F01F0BA8
:10025000CBF120060CFA0BFB2CFA06F644BFB34692
:100260000026202FA4BF5E464FF0000B5BEA060C71
:1002700008BF4FF0010B19EB0B09ABFB027C48EBFD
:100280000608C01B06FB02CC0BFB03CC71EB0C0178
:10029000C1E70B46024641464846BDE8F08B13B520
:1002A0004FF000004FF00001AFF30080BDE81C40AC
:1002B000704700000FB41CB5074B06AA7B44694683
:1002C0000090059800F083FE0020694600F009F8D0
:1002D0001CBC5DF814FB0000230000007047704751
:1002E00070470A6802F8010B0A60704700487047BF
:1002F000340000100048704714000010FFFFFFFF9B
:100300002DE9F047B1480068C0F3016003287CD1B3
:10031000AF48006810F0030006D0012833D002284F
:100320005FD003282ED100E000BFA8480068C0F3CA
:10033000074000F101044FF00201A648D0F8880000
:10034000C0F30E0000F10100A1FB0001A24B4FF031
:10035000000CA0FB037901FB039100FB0C1122466A
:1003600063463846FFF72EFF05469C480068C0B23A
:1003700000F1010422464FF000032846FFF722FF58
:10038000974908605DE091480068C0F3074000F1BC
:1003900001044FF002018F48D0F88800C0F30E002E
:1003A00000F10100A1FB00108E4A4FF0000CA1FBF0
:1003B000027900FB029001FB0C012246634638469D
:1003C000FFF700FF054685480068C0B200F1010450
:1003D00022464FF000032846FFF7F4FE80490860EC
:1003E0002FE07A480068C0F3074000F101044FF0A5
:1003F00002017848D0F88800C0F30E0000F1010037
:10040000A1FB00124FF4004000E01BE04FF000039E
:10041000A1FB007902FB009001FB03012246384654
:10042000FFF7D0FE05466D480068C0B200F1010438
:1004300022464FF000032846FFF7C4FE68490860D3
:1004400000BF2FE06248006810F0030006D00128CA
:1004500010D0022819D0032823D100E000BF5F4844
:100460000068C0B200F101005B49B1FBF0F05C49EB
:10047000086016E059480068C0B200F1010059490F
:10048000B1FBF0F0564908600BE054480068C0B278
:1004900000F101004FF40041B1FBF0F05049086059
:1004A00000BF00BFBDE8F08720204F4908604948E1
:1004B000D0F8A00110F0200F05D000BF4A48006816
:1004C00010F0400FFAD00320444908604FF00000BC
:1004D0004049C1F8A801454908604FF001003C4976
:1004E00008604348434908604FF0AA004249086049
:1004F0004FF0550008604FF00100404908604FF090
:10050000AA003D4908604FF055003249C1F88C00FF
:1005100000BF2E48006810F0806FFAD003203749E2
:1005200008604FF0AA002B49C1F88C004FF055002D
:100530003149086000BF2548006800F04070B0F104
:10054000407FF8D123202E4908604FF0AA002149AE
:10055000C1F8AC004FF055002A4908604FF0010087
:10056000294908604FF0AA00264908604FF055005D
:100570001849C1F8AC0000BF2448006810F4806F2F
:10058000FAD00320204908604FF0AA001149C1F8B1
:10059000AC004FF055001B49086000BF1B480068C5
:1005A00000F44070B0F5407FF8D11948194908604F
:1005B0004FF000000749C1F8C8010846006820F460
:1005C000704040F4804008607047000088C00F40D1
:1005D0000CC10F4000C00F4000093D0004C10F4096
:1005E00000000010001BB700A0C10F40ACC10F40BD
:1005F0006300050084C00F408CC00F4080C00F40D6
:10060000A4C00F40ACC00F40A0C00F40A8C00F4016
:10061000DE872804C4C00F4095490988C905954A5A
:1006200051619549096819B94FF00061D16103E042
:100630004FF000618F4A91614FF080518D4A916176
:10064000002000E0401C3228FCDB4FF08051894A3A
:10065000D161002000E0401C47F230518842FADBB3
:10066000704700B585480068302803D0834800688B
:10067000202801D1012000E000207F49096809B944
:10068000012100E00021084203D001207C490860DC
:1006900002E000207A490860784800680011744937
:1006A0000860FFF7B9FF7648006838B973480078EA
:1006B00000F00F006E490860FFF7AEFF00BD96B076
:1006C00070A207CA0EAB07C371A207CA0BAB07C360
:1006D0002422724902A800F0D6F9FFF7E5FEFFF7E1
:1006E0000FFE00206E4948604FF0FC5061490860E1
:1006F000002061490860002407E002A850F82400A7
:100700005E490860FFF7ADFF641C082CF5DD012091
:10071000594908604FF040406149C86088146149F8
:1007200008606148D0F8C40040F4004008604FF011
:100730000000514908604FF0800050490860FFF701
:1007400090FF01204C490860002405E00EA8005DE0
:100750004A490860FFF785FF2046641C0EA9085C23
:100760000028F3D144490860C02044490860FFF7DD
:1007700078FF012040490860002405E00BA8005DD7
:100780003E490860FFF76DFF2046641C0BA9085C1A
:100790000028F3D16AE045484549086000BF444855
:1007A0004068C00FFBD1424845682D09C5F30B05D1
:1007B000284601F02BFC834601F0FCFB06464FF077
:1007C00066323C4B01F0F8FA00223B4BCDE90001C8
:1007D00001F09AF9814601F065F98046404601F042
:1007E000E9FB064632460B4634A113A8FFF762FD2B
:1007F0002A4634A111A8FFF75DFD00201E490860BC
:100800008A201E490860FFF72CFF01201A49086062
:10081000002406E013A8005D18490860641CFFF777
:1008200020FF13A8005D0028F4D113490860CA20F6
:1008300012490860FFF715FF01200F4908600024E6
:1008400006E011A8005D0D490860641CFFF709FF70
:1008500011A8005D0028F4D1002405E0002011A9B2
:10086000085513A90855641C072CF7DB93E7000013
:100870000800001000C009200C0000100400001047
:100880001000001020414E414C4F472049503A0083
:10089000414443204F55545055543A00CC20000059
:1008A00000C00240C4C00F4000C00F402000200123
:1008B0000040034066660A4000FEAF4025332E32FA
:1008C000665600002578000070B50446856900680A
:1008D000C10601D5302600E02026C00708D070BD33
:1008E000D4E9012130469047206A00F101002062DE
:1008F0006D1EF5D570BD70B5044685690078C007DA
:1009000008D170BDD4E9012120209047206A00F170
:10091000010020626D1EF5D570BD000070B5044663
:100920000D4621461068AFF300802188090502D5E5
:10093000104A7A4402E00F4A7A440E32002104F150
:10094000240307E000F00F064FEA1010965D5E5496
:1009500001F101010028F5D103462078000704D5F4
:10096000702D02D009B1113202232046BDE870403B
:1009700000F0BBB8BA1700002DE9F0474FF0000AAD
:1009800089460446C0F820A02046E1688847002830
:1009900076D0252806D0D4E901219047206A401C52
:1009A0002062F1E7E168204600258847C4F81CA0D2
:1009B00006460027C4F818A02A2E09D0304601F0B8
:1009C00053F838B304EB8708303EC8F8186019E0D4
:1009D00059F8041B204604EB87029161E1688847BF
:1009E000012F064618D1E069002820DA25F02005FD
:1009F0001DE0D8F8180000EB800006EB400030380E
:100A0000C8F818002046E1688847064601F02CF82F
:100A10000028EED1012F0AD02E2E08D12046E16801
:100A200088477F1C0646022F45F02005C4DBA069DD
:100A3000002803DA404245F00105A061E80701D033
:100A400025F01005B6B1A6F14100192802D82036CC
:100A500045F400654A463146204625604D46FFF77D
:100A60006FFB58B1012806D0ED1D25F0070000F1FD
:100A7000080989E704E005F1040985E730468AE7BB
:100A8000206ABDE8F08710B5203AC0F00B80B1E8CD
:100A90001850203AA0E81850B1E81850A0E81850B3
:100AA000BFF4F5AF5FEA027C24BFB1E81850A0E8BC
:100AB000185044BF18C918C0BDE810405FEA827CD6
:100AC00024BF51F8043B40F8043B08BF7047D207ED
:100AD00028BF31F8023B48BF11F8012B28BF20F88E
:100AE000023B48BF00F8012B70472DE9F0470D4647
:100AF00099469246044600F124080168880604D508
:100B0000E06921F01001216000E00120A84202DD2F
:100B1000A0EB050700E00027A16907EB050202EB47
:100B20000900A1EB0000A0612078C00602D4204695
:100B3000FFF7CAFE002608E0D4E901211AF80600F2
:100B40009047206A401C761C20624E45F4DB2078DA
:100B5000C0060AD52046FFF7B7FE06E0D4E901211A
:100B600030209047206A401C2062381EA7F1010700
:100B7000F4DC07E0D4E9012118F805009047206A69
:100B8000401C2062281EA5F10105F3DC2046FFF77A
:100B9000B2FE2078000602D50220BDE8F0870120D1
:100BA000FBE770472DE9FF4F0C461E464FF0FF371D
:100BB0008BB0D2E90001DDF860800A908A46C1F36B
:100BC0000A5505B93D46002108464FF00000BAF12C
:100BD000000F00F4400005DA00EB80004FF4400104
:100BE00001EA50004FEA9059B9F1010F00DDB94612
:100BF0000A9850EA4A000ED044F61050A5F2FF358C
:100C000045432F14B8F1000F1ED07542291E1EDD7A
:100C1000C9F100021CE0B8F1010F4FF0000001D053
:100C2000302103E0F24305E02154401CB042FBDBDD
:100C300030460022002121540B99C1F80880C1E9F7
:100C400000200FB0BDE8F08FBD1B6D1CDEE74A46EB
:100C500000DA694206A800F053FA06AB07CB03ABF3
:100C600007C350460A9900F030FB8DE80700A0F555
:100C700000501F3800900398002D09DD42F21F013B
:100C80004A46084403A90390684600F08FFD08E037
:100C9000A0F500504A461F3803A90390684600F0AB
:100CA00099FD8DE807000004000C03D04FF0FF30E1
:100CB000410800E01046B8F1000F03D00022009276
:100CC00015461FE0751E06D400F094F902F13002BB
:100CD00062556D1EF8D5B3460122084302D00022AA
:100CE0007F1C04E02078302801D100227F1E002ADA
:100CF000099787D01DE0112D07DA00F07BF930321B
:100D000062556D1C50EA0102F5D108430FD1002154
:100D1000681E05E0235C625C6354491C2254401E3B
:100D20008142F7DBAB46A81B401E099001E000980A
:100D300048B1002004F80B000B98099AC0F808800D
:100D4000C0E9002B7DE711264FF000085AE72DE996
:100D5000F04F88460446D21D22F0070191B0D1E938
:100D60000001CDE90A0100F06BFE02460B98C00FAE
:100D700001D02D2007E02068810701D52B2002E05B
:100D8000202101EAC000032A099001D0072A05DBCF
:100D900003464146204600F073F90FE120788006B3
:100DA00001D5E06900E00620B8F1650F814606D064
:100DB000B8F1660F18D0B8F1670F72D132E0002099
:100DC000B9F1110F009001DB112301E009F10103DA
:100DD0000AAA01A90CA8FFF7E5FEDDE90C700026C0
:100DE00009F10105834648E001204B4600904FF091
:100DF00000470AAA01A90CA8FFF7D4FEDDE90DB04F
:100E00000C995D46002618B909F1010001EB0005B7
:100E1000B9EB050003D4C0F1FF3609F10105A5EBDC
:100E200009002BE0B9F1010F01DA4FF001090020B0
:100E3000B9F1110F0090484601DD112300E003468F
:100E40000AAA01A90CA8FFF7ADFEDDE90C704D461A
:100E500000268346207800070AD4AB4500DA5D46B9
:100E600001A8012D04DD411911F8011C302907D01A
:100E70004F4502DA17F1040F04DA0120824610E030
:100E80006D1EEEE7002F02DCED1B3E4403E0781CF4
:100E9000A84200DD0546A7EB060000F1010A4FF06D
:100EA00000472078000703D4AA4501DB4FF0FF3A42
:100EB0000021B7F1004F0DF143088DF8431023D006
:100EC00002202B23002F01DA7F422D234FF00A0C42
:100ED000011EA0F1010000DC4FB197FBFCF10CFBFF
:100EE00011720F4602F1300208F8012DF0E7A8F167
:100EF000010003702188090501D5452100E0652125
:100F0000A0F1010800F8011C09980FA9A1EB08073E
:100F100007F1070700B1012000EB050101EBEA70C2
:100F2000A1693844A1EB0000A0F10100A061207884
:100F3000C00602D42046FFF7C7FC099830B1D4E9B7
:100F400001219047206A00F1010020622078C0064C
:100F500020D52046FFF7B8FC1CE0002E04DBB3458B
:100F600002DD01A8805D00E03020D4E90121904736
:100F7000206A761C401CBAF1010A20620AD1FFF7F0
:100F8000B5F9C0680168405CD4E901219047206A46
:100F9000401C2062281EA5F10105DEDC07E0D4E933
:100FA000012118F8010B9047206A401C2062381E6E
:100FB000A7F10107F3DC2046FFF79DFC022011B0EA
:100FC00040E6000001694A1C02610878704700B5DC
:100FD0008FB0CDE901310021059105497944CDE972
:100FE000031011466846FFF7C7FC0FB000BD0000B4
:100FF000E5FFFFFF30B5B0F10A024FEA900E71F144
:1010000000034EEA817EB0EB0E0061EB91014FEAE6
:10101000101E4EEA017E10EB0E0041EB11114FEA5B
:10102000102E4EEA016E10EB0E0041EB11214FEA3B
:10103000104E4EEA014E10EB0E0041EB11414018EC
:1010400041F100014FEAD00040EA41704FEAD1017E
:1010500010EB80054FEA810444EA907444EB0104EC
:101060006D1944EB0404521BA3414FF0000348BF29
:101070000A3200D530BD401C41F1000130BD0000F6
:101080002DE9F0411F46044603260168072A01F4B2
:10109000006004DB08B116A505E016A503E008B161
:1010A00015A500E015A521F010002060A069C01E64
:1010B000A0610FB1401EA0612046FFF705FC4FB1B3
:1010C000D4E9012138469047206A401C2062C01CA8
:1010D000206206E0206AFAE7D4E9012115F8010B45
:1010E0009047761EF8D22046FFF705FCBDE8F08158
:1010F0004E414E006E616E00494E4600696E6600BC
:101100002DE9F047814616468AB035487844D0E943
:10111000002380680092CDE90130314878440C38D2
:10112000D0E90223006903924FF03702CDE9043081
:1011300041F69B30014491FBF2F0A0F1800502FBE7
:1011400010141B3C02D56442012000E00020DFF8AF
:1011500090A080460027FA44AAF1C60A0DE0E007F5
:1011600009D03246684607EB47010AEB810100F0DF
:1011700031FB8DE8070064107F1C002CEFD1184F65
:101180007F44B43F17E0E80713D007EB04100DF1DC
:10119000180A90E80E00AAE80E00C068F04201D1DB
:1011A00098190890324606A903A800F013FB03AB78
:1011B00007C36D10641C002DE5D132466946B8F1B5
:1011C000000F03A802D000F0F1FA01E000F002FBEA
:1011D000C9E90001C9F808200AB0BDE8F08700009D
:1011E000841000007546FFF785F8AE460500694695
:1011F000534620F00700854618B020B5FEF7D2FF11
:10120000BDE820404FF000064FF000074FF0000807
:101210004FF0000B21F00701AC46ACE8C009ACE888
:10122000C009ACE8C009ACE8C0098D467047044667
:10123000AFF300802046FEF7A0FF00004FF0013C16
:1012400050F8042B51F8043B9A4221D1A2EB0C0335
:10125000934313EACC1317D150F8042B51F8043BF5
:101260009A4215D1A2EB0C03934313EACC130BD192
:1012700050F8042B51F8043B9A4209D1A2EB0C031D
:10128000934313EACC13DBD04FF00000704700BF4C
:10129000D01A01BAB1FA81F101F0180122FA01F075
:1012A000CB40C1F12001DBB2C0B2C01A2CFA01F36D
:1012B000D11A914311EAC311E6D1704701491820B0
:1012C000ABBEFEE72600020070475FEA400C08BF95
:1012D00091F0000F4FEA8C234FEAC12243EA5151AB
:1012E0004FEA1C5018BF00F5F0404FEA300018BF1D
:1012F00041F000415FEA6C5C00F02980BCF1FF3FE7
:1013000008BF40F080407047130C06BF12044FF036
:10131000100C4FF0000C130E04BF12020CF1080C5D
:10132000130F04BF12010CF1040C930F04BF9200C1
:101330000CF1020CD30F04BF52000CF1010C11464A
:101340004FF00002A0F11F00A0EB0C00704711F05D
:10135000004F08BF704731F000413FF4D5AF0B0C90
:1013600006BF09044FF0100C4FF0000C0B0E04BF29
:1013700009020CF1080C0B0F04BF09010CF1040C5D
:101380008B0F04BF89000CF1020CCB0F04BF490086
:101390000CF1010CCCF12003A0EB0C0022FA03F3BA
:1013A00002FA0CF241EA030100F10100704720F05B
:1013B0007F4C80EA030023F07F47ACEB070303F583
:1013C0007C5300F0004003F1FF032DE980494FEA10
:1013D000154B09B44FEA144325EA0B4E24EA03489F
:1013E0000FF2042606EB132749083E785FEA320223
:1013F00003FB0667C7F5000707FB06F64FEA5437FD
:101400004FEAD64606F1020607FB066CCCF1005CFB
:101410004FEA1C472CEA074C07FB06F40CFB06F5C9
:1014200004EB15464FEA961634BF00204FF00040FB
:101430004FEAD13706FB07FC4FEA1C4C0CFB0BF7BD
:10144000D21B03FB0CF761EB07010CFB0EF7B0EBB3
:10145000074072EB17420CFB08F734BFA2EB0742C0
:10146000B2EB074261EB17414FEA0C444FEA910798
:1014700006FB07FC4FEA1C4C0CFB0BF7B0EBC7401C
:1014800072EB573203FB0CF734BFA2EBC742B2EB4F
:10149000C74261EB57310CFB0EF7B0EBC70072EBA4
:1014A00057720CFB08F734BFA2EBC702B2EBC702BE
:1014B00061EB5771039F4FEA816141EA921104EB9E
:1014C000CC044FEAD1374FEA826206FB07FC42EABE
:1014D00090124FEA80604FEA1C4C0CFB0BF7D21BBA
:1014E00003FB0CF761EB07010CFB0EF7B0EB0740B9
:1014F00072EB17420CFB08F734BFA2EB0742B2EBCA
:10150000074261EB17414FEA8C554FEA910704EB14
:101510009C2406FB07FC4FEA1C4C0CFB0BF7B0EBC2
:10152000C74072EB573203FB0CF734BFA2EBC74244
:10153000B2EBC74261EB57310CFB0EF7B0EBC700C3
:1015400072EB57720CFB08F734BFA2EBC702B2EB89
:10155000C70261EB577115EB4C254FEA816141EAF7
:1015600092114FEA82624FEAD13742EA901206FBAB
:1015700007FC44F100044FEA80604FEA1C4C0CFB6E
:101580000BF7D21B03FB0CF761EB07010CFB0EF70B
:10159000B0EB074072EB17420CFB08F734BFA2EB2D
:1015A0000742B2EB074261EB174115EB1C154FEAFE
:1015B000813141EA92414FEA823242EA90424FEA57
:1015C00080304FEA0C7644F1000448EA03434EEAC7
:1015D0000B484FF0000EB2EB080C71EB030724BF71
:1015E000624639464EEB0E0E4FF0000B001852418A
:1015F00049414BEB0B0BB2EB080C71EB03077BF192
:10160000000B24BF624639464EEB0E0E4FF0000B26
:101610000018524149414BEB0B0BB2EB080C71EB3C
:1016200003077BF1000B24BF624639464EEB0E0EDA
:1016300051EA020718BF46F0010616EB0E7655F187
:10164000000254F1000103D5BDE88901BDE800881E
:10165000BDE88901BDE80048B619524141EB0101DE
:10166000A3F10103704780807F7E7D7C7B7A79784F
:10167000777676757473727171706F6E6E6D6C6C57
:101680006B6A6A69686867666665646463636261F9
:101690006160605F5F5E5E5D5D5C5C5B5B5A5A597A
:1016A00059585857575656555555545453535252E6
:1016B0005251515050504F4F4F4E4E4D4D4D4C4C3E
:1016C0004C4B4B4B4A4A4A49494948484847474787
:1016D00047464646454545444444444343434342C4
:1016E000424242414141002B26D4770021D01CB513
:1016F0004FEA370703B44FF010004FF010014FF0DE
:1017000000000FBCBDE810400BF1010BBBF1010F55
:1017100008BF5FEA170722BF12F1010211F10101B0
:101720004FF0004143F1000300F0004043EA0000A5
:101730007047F9D35708DAE746EA064613F1400F37
:101740004FEA16461FDD13F1200FDFBF16430A468E
:10175000002120335B42C8D0C3F1200746EA064689
:1017600002FA07F74FEA164646EA0706C3F12007D2
:1017700022FA03F201FA07F721FA03F14FF000030E
:1017800042EA0702B1E746EA020646EA06464FEA9F
:10179000164646EA0106BCBF46EA0646360C4FF03E
:1017A00000034FF000024FF000019EE72DE9C04812
:1017B000934630B491E8380007C831EA400C48BF7E
:1017C00034EA430C03D5FFF7F2FDFFF78CFFF0BCC2
:1017D000BDE800882DE9C048934630B491E8380050
:1017E00007C810F0804F08BF13F0804F03D100F0FE
:1017F00005F8FFF778FFF0BCBDE8008820F07F47D0
:1018000080EA030023F07F4C07EB0C03A3F57C5325
:1018100000F00040A3F1FE0392F0000F00F0B3804F
:1018200095F0000F00F077802DE901494FEA114053
:101830004FEA144621EA004800FB06FC24EA06476A
:1018400008FB06F607FB08F800FB07F718EB06484D
:101850004CEB164C4FEA124B18EB07484FEA154673
:101860004CEB174022EA0B4E0BFB06FC25EA064721
:101870000EFB06F607FB0EFE0BFB07F71EEB064EF4
:101880004CEB164C4FF000061EEB074E4CEB174B83
:1018900018EB0B0840F1000018EB0E0B58EB00089A
:1018A00040F100008F1A4FF000013CBFC943661B96
:1018B00014BFB5EB040C00213CBFC943F61B4FEA33
:1018C00017444EEA8E0E27EA04454FEA1C4704FBF4
:1018D00007622CEA074C05FB07F70CFB05F604FB37
:1018E0000CFC16EB074642EB174216EB0C4642EB9C
:1018F0001C421BEB060658EB0202414146EA9E06DB
:1019000001D5BDE80189B619524141EB0101A3F1AE
:101910000103BDE801894FEA14454FEA114724EA63
:10192000054621EA074C05FB07F406FB07F70CFB0D
:1019300006F105FB0CFC11EB074144EB17444FEAA1
:10194000124711EB0C4144EB1C4422EA074C05FB07
:1019500007F206FB07F70CFB06F605FB0CFC16EB83
:10196000074642EB174216EB0C4642EB1C456A1841
:1019700054F1000148BF7047B619524141EB0101D3
:10198000A3F10103704795F0000F37D04FEA1142E1
:101990004FEA144721EA024624EA074C02FB07F10A
:1019A00006FB07F70CFB06F402FB0CFC14EB0744E8
:1019B00041EB17414FEA154714EB0C4441EB1C4136
:1019C00025EA074C02FB07F506FB07F70CFB06F6BA
:1019D00002FB0CFC16EB074645EB174516EB0C46D5
:1019E00045EB1C42121951F1000148BF7047B6196E
:1019F000524141EB0101A3F1010370474FEA144545
:101A00004FEA114724EA054621EA074C05FB07F196
:101A100006FB07F70CFB06F24FF0000605FB0CFC7B
:101A200012EB074241EB174112EB0C4251EB1C4108
:101A300048BF7047921841EB0101A3F101037047C1
:101A4000490050EAC12018BF04204A0D18BF40F0D9
:101A5000010040F2FF72B2EB515F08BF40F002009C
:101A6000012808BF0520704730380A2801D201201C
:101A7000704700207047000010B500290AD0087890
:101A8000002807D005487844FFF7D8FB002801D08C
:101A9000002010BD0248784410BD00004607000039
:101AA0003E07000021F00042A2F16052B2F5801F13
:101AB00001F0004328BFD2F17F6C0BD95FEA001C14
:101AC00043EAC20242EB507018BF704728BF20F0B3
:101AD00001007047B2F5801FBCBF184670474FEA3F
:101AE000410C1CF5001F02D2084600F0E8BA70B5A0
:101AF00000F00CFA00000089FFF7F6BF4FF000403D
:101B0000A0F58000704700002DE9C04130B4DFF837
:101B1000A0C23CEA111418BF3CEA131400F0EC8098
:101B200081EA03051CEA111444EAD57418BF1CEAC3
:101B3000131500F0C780A4EB05044FF0004545EAFB
:101B4000C12145EAC32341EA505143EA525304F10B
:101B50007F74994204F500344FEAC0204FEAC22254
:101B600008BF904200F09C804FEA13650FF24016C8
:101B7000765D4FEA134506FB05F7C7F1807706FB54
:101B800007F74FEAD737A7FB03687642C8F58038D6
:101B9000A7FB06CE38BFA8F1010807FB08E64FF007
:101BA000000EA6FB028CE6FB03CEDCF1000CCEF1AE
:101BB000004E38BFAEF1010EA6FB0C584FF00007E7
:101BC0004FF00005E6FB0E87A1FB08C6A0FB07CE81
:101BD00016EB0E0645F10005E1FB076515F1E04E39
:101BE0007EBFA4F580345FEA46066D4116F180079A
:101BF00045F100054FEA17274FEA066647EA0567F1
:101C0000A6F1DE46B6F1805F4FEA15251FD93846AA
:101C100024F0010C05EBC471BCF1FE6F01EB0C115B
:101C200002D8F0BCBDE8008124425CBF01F5801EF3
:101C30009EEAC47F02D4F0BCBDE80081244238D4BF
:101C4000F0BCA1F1C041BDE8004100F0ADB94FEAE0
:101C5000D22242EA43524FEAD323A7FB02864FEA3D
:101C6000D02040EA415007FB03661EEA0E0F4FEA00
:101C7000D12105FB026658BFA6EB0056B6EB005615
:101C80004FEA520E4EEAC37E18EB0E0E56EB530E81
:101C9000BDD518EB02085E417F1C55F10005B6E783
:101CA0004FF480154FF000074FF000064FF000088A
:101CB000ADE7F0BC4FF0000001F1C04101F0004180
:101CC000BDE8008111EA0C1F0CEA131500D00CE0EE
:101CD00013EA0C1F00F025804FF00000F0BC81EAF1
:101CE000030101F00041BDE80081F0BCBDE8004106
:101CF00081EA030100F058B9F0BCBDE8004170B5BD
:101D000000F004F9097EFC3E00F007B881EA030107
:101D10004FF0000001F00041704781EA030100F03C
:101D200043B9F0BCBDE800414FF0000021497047C5
:101D3000FFFDFBF9F7F5F4F2F0EEEDEBE9E8E6E490
:101D4000E3E1E0DEDDDBDAD8D7D5D4D3D1D0CFCD17
:101D5000CCCBCAC8C7C6C5C4C2C1C0BFBEBDBCBB50
:101D6000BAB9B8B7B6B5B4B3B2B1B0AFAEADACAB4B
:101D7000AAA9A8A8A7A6A5A4A3A3A2A1A09F9F9E25
:101D80009D9C9C9B9A9999989797969595949393D7
:101D9000929191908F8F8E8E8D8C8C8B8B8A89896E
:101DA00088888787868585848483838282818180F1
:101DB0000000FF070000F87FDFF848C170B51CEA9B
:101DC000111E1EBF1CEA13159EEA0C0F95EA0C0F9C
:101DD00000F06F8081EA030423EA4C134EEAD47EBC
:101DE00021EA4C1141F4801143F48013AE44A1FB6D
:101DF000024CA0FB0365AEF17F7E361955EB0C0556
:101E0000A1FB034C4CF10003A0FB021C16EB0C06DB
:101E1000654153F10003094218BF46F0010613F46F
:101E2000007F0BD14FEA03314FEA0530340341EA1A
:101E3000155140EA16506FF003020AE04FEAC32141
:101E40004FEAC520F40241EA555140EA56506FF07E
:101E5000020202EB2E4201EB025585EACE710AD056
:101E60005FEA440C18BF24F0004450F1000041F137
:101E7000000120EAD47040F2FE7C624500D270BDC1
:101E8000A84214BF4FF080444FF04044002E08BFDA
:101E90000024BEF1806FA8BFA1F1C041BDE8704031
:101EA00080F282804FF0000001F1C04101F000415A
:101EB00070479EEA0C0F0CEA131518BF95EA0C0F39
:101EC00006D04FF0000081EA030E0EF0004170BD15
:101ED00000F01CF88900013E00F007B800F009B8D6
:101EE0004FEA430C5FEA5C5C08D081EA030100F032
:101EF0005BB84FEA410C5FEA5C5CF6D14FF0000042
:101F0000014970470000FF070000F87F0EF1020E44
:101F10002EF0030E5EF8046B364205D4012A43EB23
:101F2000030515F5001F12D8012841EB010C1CF523
:101F3000001F0CD80ED14FEAD17C15F5001F0CEB19
:101F40004C0C0CF1020C08BF4CEBD37C04E04FF0BE
:101F5000080C01E04FEAD37C0CEB4C0526FA05F6A1
:101F600006F00706B6F1040C06D20EEB860CBDE8AF
:101F700070404CF0010C6047DFE80CF0090B0202E6
:101F80004FF000414FF00000A1F5002170BD19464F
:101F90001046012851EB010418BFD4F5001484BF8A
:101FA000002001F0004170BD0808A0F500114FEAC3
:101FB0003101704743004FEAD30C4FEA3C0C4340D9
:101FC0001FBF40070CF1605113F0FE4F70471CF02B
:101FD000006F03D100200CF0004170470CF000436B
:101FE00043EA507010B540EACC0000F022F800BF80
:101FF000000000924FEA0001FFF7D6BF4FF000410A
:102000004FF00000A1F5002170470000B0FA80F306
:1020100010FA03F2C3F19D030AD0D90501EB122097
:10202000530638BF704700F1010008BF20F00100DF
:1020300070470EF1020E2EF0030E5EF8044B2442A0
:1020400004D44FEA4102B2F17F4F11D84FEA400366
:10205000B3F17F4F0CD80ED14FEAD07CB2F17F4F55
:102060000CEB4C0C0CF1020C08BF4CEBD17C04E0E7
:102070004FF0080C01E04FEAD17C0CEB4C0324FA42
:1020800003F404F00704B4F1040C06D20EEB840C44
:10209000BDE810404CF0010C6047DFE80CF0070889
:1020A00002024FF00040A0F5800010BD084642003B
:1020B00018BFD2F1807288BF00F0004010BDFF2130
:1020C00041EAD050C0057047FEF741BE3000000025
:1020D0003000000030000000200000002800000058
:1020E0000C0000000100000080000000060000005D
:1020F000303132333435363738394142434445463E
:102100004030580030313233343536373839616237
:10211000636465664030780002400000000000A063
:102120000000000005400000000000C800000000A2
:102130000C4000000000409C00000000194000001E
:102140000020BCBE0000000034400000BFC91B8E50
:1021500000000004B5400000504BCFD06607E2CF2E
:10216000010000006C4100003E8251AADFEEA7345E
:1021700001000000D9420000DCB5A0E23A301F9710
:10218000FFFFFFFFB4450000FD25A0C8E9A3C14F34
:10219000FFFFFFFFFF3F0000000000800000000085
:1021A000FF3F00000000008000000000E821000068
:1021B000000000101400000008010000FC210000D5
:1021C0001400001064020000240100001C00000044
:1021D00043000000F8FFFFFF0C0000000E000000AD
:1021E0000F0000002E00000000E1F50500000000D7
:0C21F000000000000000000000000000E3
:04000005000001896D
:00000001FF
