:020000040000FA
:100000007802001069010000710100007301000016
:100010007501000077010000790100000000000078
:100020000000000000000000000000007B01000054
:100030007D010000000000007F0100008101000040
:1000400083010000830100008301000083010000A0
:100050008301000083010000830100008301000090
:100060008301000083010000830100008301000080
:100070008301000083010000830100008301000070
:100080008301000083010000830100008301000060
:100090008301000083010000830100008301000050
:1000A0008301000083010000830100008301000040
:1000B0008301000083010000830100008301000030
:1000C00083010000830100008301000000F002F8BA
:1000D00000F03AF80AA090E8000C82448344AAF1A8
:1000E0000107DA4501D100F02FF8AFF2090EBAE8A6
:1000F0000F0013F0010F18BFFB1A43F0010318475C
:100100004008000060080000103A24BF78C878C199
:10011000FAD8520724BF30C830C144BF04680C600D
:10012000704700000023002400250026103A28BF55
:1001300078C1FBD8520728BF30C148BF0B60704759
:100140001FB51FBD10B510BD00F0B0FB1146FFF785
:10015000F7FF00F0E6FA00F0CEFB03B4FFF7F2FF82
:1001600003BC00F0D3FB0000094880470948004762
:10017000FEE7FEE7FEE7FEE7FEE7FEE7FEE7FEE757
:10018000FEE7FEE704480549034A054B70470000B7
:10019000A9040000CD0000007800001078020010D3
:1001A0007800001053EA020C00F069802DE9F04B52
:1001B0004FF00006002B1FBFB3FA83F503FA05F4D6
:1001C00024FA05F65E4012BF1643B2FA82F502FA2F
:1001D00005F4C5F120051EBF22FA05FC44EA0C0413
:1001E000203556EA044C4FEA144418BF641C4FF003
:1001F00000084FF00009904271EB030C39D300293D
:1002000019BFB1FA81F701FA07F6B0FA80F700FAE0
:1002100007F6C7F120071EBF20FA07FC46EA0C06C6
:100220002037B6FBF4FCA7EB0507103F07F01F0BC8
:10023000CBF120060CFA0BFB2CFA06F644BFB346B2
:100240000026202FA4BF5E464FF0000B5BEA060C91
:1002500008BF4FF0010B19EB0B09ABFB027C48EB1D
:100260000608C01B06FB02CC0BFB03CC71EB0C0198
:10027000C1E70B46024641464846BDE8F08B13B540
:100280004FF000004FF00001AFF30080BDE81C40CC
:10029000704710B5203AC0F00B80B1E81850203AF2
:1002A000A0E81850B1E81850A0E81850BFF4F5AF16
:1002B0005FEA027C24BFB1E81850A0E8185044BFA0
:1002C00018C918C0BDE810405FEA827C24BF51F80D
:1002D000043B40F8043B08BF7047D20728BF31F801
:1002E000023B48BF11F8012B28BF20F8023B48BF52
:1002F00000F8012B7047704770477047FFFFFFFF02
:100300002DE9F047B1480068C0F3016003287CD1B3
:10031000AF48006810F0030006D0012833D002284F
:100320005FD003282ED100E000BFA8480068C0F3CA
:10033000074000F101044FF00201A648D0F8880000
:10034000C0F30E0000F10100A1FB0001A24B4FF031
:10035000000CA0FB037901FB039100FB0C1122466A
:1003600063463846FFF71EFF05469C480068C0B24A
:1003700000F1010422464FF000032846FFF712FF68
:10038000974908605DE091480068C0F3074000F1BC
:1003900001044FF002018F48D0F88800C0F30E002E
:1003A00000F10100A1FB00108E4A4FF0000CA1FBF0
:1003B000027900FB029001FB0C012246634638469D
:1003C000FFF7F0FE054685480068C0B200F1010461
:1003D00022464FF000032846FFF7E4FE80490860FC
:1003E0002FE07A480068C0F3074000F101044FF0A5
:1003F00002017848D0F88800C0F30E0000F1010037
:10040000A1FB00124FF4004000E01BE04FF000039E
:10041000A1FB007902FB009001FB03012246384654
:10042000FFF7C0FE05466D480068C0B200F1010448
:1004300022464FF000032846FFF7B4FE68490860E3
:1004400000BF2FE06248006810F0030006D00128CA
:1004500010D0022819D0032823D100E000BF5F4844
:100460000068C0B200F101005B49B1FBF0F05C49EB
:10047000086016E059480068C0B200F1010059490F
:10048000B1FBF0F0564908600BE054480068C0B278
:1004900000F101004FF40041B1FBF0F05049086059
:1004A00000BF00BFBDE8F08720204F4908604948E1
:1004B000D0F8A00110F0200F05D000BF4A48006816
:1004C00010F0400FFAD00320444908604FF00000BC
:1004D0004049C1F8A801454908604FF001003C4976
:1004E00008604348434908604FF0AA004249086049
:1004F0004FF0550008604FF00100404908604FF090
:10050000AA003D4908604FF055003249C1F88C00FF
:1005100000BF2E48006810F0806FFAD003203749E2
:1005200008604FF0AA002B49C1F88C004FF055002D
:100530003149086000BF2548006800F04070B0F104
:10054000407FF8D123202E4908604FF0AA002149AE
:10055000C1F8AC004FF055002A4908604FF0010087
:10056000294908604FF0AA00264908604FF055005D
:100570001849C1F8AC0000BF2448006810F4806F2F
:10058000FAD00320204908604FF0AA001149C1F8B1
:10059000AC004FF055001B49086000BF1B480068C5
:1005A00000F44070B0F5407FF8D11948194908604F
:1005B0004FF000000749C1F8C8010846006820F460
:1005C000704040F4804008607047000088C00F40D1
:1005D0000CC10F4000C00F4000093D0004C10F4096
:1005E00000000010001BB700A0C10F40ACC10F40BD
:1005F0006300050084C00F408CC00F4080C00F40D6
:10060000A4C00F40ACC00F40A0C00F40A8C00F4016
:10061000DE872804C4C00F40F0B50024054600283A
:1006200000DA40420EE00A2690FBF6F706FB1706BA
:10063000303606F0FF0C2646641C01F806C00A2678
:1006400090FBF6F00028EEDC002D05DA4FF0460CAA
:100650002646641C01F806C000260E550022631EC3
:1006600005E08E5CCF5C8F54CE54521C5B1E9A42C8
:10067000F7DBF0BD85490988C905854A516185497F
:10068000096819B94FF00061D16103E04FF00061D2
:100690007F4A91614FF080517D4A9161002000E0D6
:1006A000401C1428FCDB4FF08051794AD1610020B6
:1006B00000E0401C78498842FBDB704700B5754874
:1006C0000068012803D100207449086011E07148D6
:1006D000006870B972480068302803D0704800681C
:1006E000202803D101206D49086002E000206B49F9
:1006F00008606B48007800F0F00064490860084624
:10070000006800110860FFF7B5FF6448006838B959
:100710006348007800F00F005C490860FFF7AAFF0B
:1007200000BD2DE9F04790B024225E4907A8FFF7ED
:10073000B0FD0026FFF7B8FEFFF7E2FD00205A49A2
:100740004860C86008614FF0FC50514908600020C3
:1007500008624FF47050086400204E49086000247D
:1007600007E007A850F824004D490860FFF7A6FFEE
:10077000641C092CF5DB002646E000272CE0012054
:100780004449086007F10A00012181404048416561
:100790004FF0000801E008F1010842F210708045B6
:1007A000F9DB3B48456BC5F3C35505B913E0082D8C
:1007B00002D14FF0030A0DE0042D02D14FF0020ADE
:1007C00008E0022D02D14FF0010A03E0012D01D112
:1007D0004FF0000A02E07F1C042FD0DB00BF95B170
:1007E000042000FB07A002A941F8260002A850F847
:1007F00026002B490860FFF761FF02A850F8260089
:100800000F2800D102E0761C042EB6DB00BF03984F
:100810000C2803D10499029800EB010903980D28D4
:1008200003D104990298A0EB010901A94846FFF7FA
:10083000F3FE002017490860002407E007A850F8DD
:10084000240017490860FFF739FF641C092CF5DB09
:10085000002413E0102C0AD100200E490860C020AB
:100860000F490860FFF72AFF01200A49086001A824
:10087000005D0B490860FFF721FF641C01A8005DC3
:100880000028E7D110B0BDE8F08700000800001094
:1008900000C009200C000010E093040010000010BC
:1008A000040000101C09000000C00240754600F062
:1008B00029F8AE4605006946534620F007008546F4
:1008C00018B020B5FFF75EFCBDE820404FF00006F1
:1008D0004FF000074FF000084FF0000B21F0070128
:1008E000AC46ACE8C009ACE8C009ACE8C009ACE86B
:1008F000C0098D4670470446AFF300802046FFF7DD
:100900002CFC00000048704714000010014918201A
:10091000ABBEFEE72600020070470000300000007A
:10092000300000003000000020000000280000001F
:1009300001000000060000000C0000008000000024
:100940006009000000000010140000000801000011
:10095000740900001400001064020000240100006B
:1009600000E1F505000000000000000000000000AC
:040970000000000083
:04000005000001698D
:00000001FF
